{
  "_format": "hh-sol-artifact-1",
  "contractName": "EncryptedSurvey",
  "sourceName": "contracts/EncryptedSurvey.sol",
  "abi": [
    {
      "inputs": [],
      "name": "ZamaProtocolUnsupported",
      "type": "error"
    },
    {
      "anonymous": false,
      "inputs": [
        {
          "indexed": true,
          "internalType": "uint256",
          "name": "surveyId",
          "type": "uint256"
        },
        {
          "indexed": true,
          "internalType": "address",
          "name": "viewer",
          "type": "address"
        },
        {
          "indexed": true,
          "internalType": "address",
          "name": "granter",
          "type": "address"
        }
      ],
      "name": "PermissionGranted",
      "type": "event"
    },
    {
      "anonymous": false,
      "inputs": [
        {
          "indexed": true,
          "internalType": "uint256",
          "name": "surveyId",
          "type": "uint256"
        },
        {
          "indexed": true,
          "internalType": "address",
          "name": "viewer",
          "type": "address"
        },
        {
          "indexed": true,
          "internalType": "address",
          "name": "revoker",
          "type": "address"
        }
      ],
      "name": "PermissionRevoked",
      "type": "event"
    },
    {
      "anonymous": false,
      "inputs": [
        {
          "indexed": true,
          "internalType": "uint256",
          "name": "surveyId",
          "type": "uint256"
        },
        {
          "indexed": true,
          "internalType": "address",
          "name": "participant",
          "type": "address"
        }
      ],
      "name": "ResponseSubmitted",
      "type": "event"
    },
    {
      "anonymous": false,
      "inputs": [
        {
          "indexed": true,
          "internalType": "uint256",
          "name": "surveyId",
          "type": "uint256"
        },
        {
          "indexed": true,
          "internalType": "address",
          "name": "creator",
          "type": "address"
        },
        {
          "indexed": false,
          "internalType": "string",
          "name": "title",
          "type": "string"
        },
        {
          "indexed": false,
          "internalType": "string",
          "name": "category",
          "type": "string"
        },
        {
          "indexed": false,
          "internalType": "uint256",
          "name": "questionCount",
          "type": "uint256"
        }
      ],
      "name": "SurveyCreated",
      "type": "event"
    },
    {
      "anonymous": false,
      "inputs": [
        {
          "indexed": true,
          "internalType": "uint256",
          "name": "surveyId",
          "type": "uint256"
        },
        {
          "indexed": false,
          "internalType": "bool",
          "name": "isActive",
          "type": "bool"
        }
      ],
      "name": "SurveyStatusChanged",
      "type": "event"
    },
    {
      "inputs": [
        {
          "internalType": "uint256",
          "name": "surveyId",
          "type": "uint256"
        }
      ],
      "name": "authorizeAllResultsDecryption",
      "outputs": [],
      "stateMutability": "nonpayable",
      "type": "function"
    },
    {
      "inputs": [
        {
          "internalType": "uint256",
          "name": "surveyId",
          "type": "uint256"
        }
      ],
      "name": "authorizeMyDecryption",
      "outputs": [],
      "stateMutability": "nonpayable",
      "type": "function"
    },
    {
      "inputs": [],
      "name": "confidentialProtocolId",
      "outputs": [
        {
          "internalType": "uint256",
          "name": "",
          "type": "uint256"
        }
      ],
      "stateMutability": "view",
      "type": "function"
    },
    {
      "inputs": [
        {
          "internalType": "string",
          "name": "title",
          "type": "string"
        },
        {
          "internalType": "string",
          "name": "category",
          "type": "string"
        },
        {
          "internalType": "string[]",
          "name": "tags",
          "type": "string[]"
        },
        {
          "internalType": "uint256",
          "name": "startTime",
          "type": "uint256"
        },
        {
          "internalType": "uint256",
          "name": "endTime",
          "type": "uint256"
        },
        {
          "internalType": "string[]",
          "name": "questionTexts",
          "type": "string[]"
        },
        {
          "internalType": "enum EncryptedSurvey.QuestionType[]",
          "name": "questionTypes",
          "type": "uint8[]"
        },
        {
          "internalType": "string[][]",
          "name": "questionOptions",
          "type": "string[][]"
        }
      ],
      "name": "createSurvey",
      "outputs": [
        {
          "internalType": "uint256",
          "name": "",
          "type": "uint256"
        }
      ],
      "stateMutability": "nonpayable",
      "type": "function"
    },
    {
      "inputs": [
        {
          "internalType": "uint256",
          "name": "surveyId",
          "type": "uint256"
        },
        {
          "internalType": "address",
          "name": "userAddress",
          "type": "address"
        }
      ],
      "name": "getPermission",
      "outputs": [
        {
          "internalType": "bool",
          "name": "canView",
          "type": "bool"
        },
        {
          "internalType": "bool",
          "name": "canExport",
          "type": "bool"
        },
        {
          "internalType": "bool",
          "name": "canManage",
          "type": "bool"
        }
      ],
      "stateMutability": "view",
      "type": "function"
    },
    {
      "inputs": [
        {
          "internalType": "uint256",
          "name": "surveyId",
          "type": "uint256"
        },
        {
          "internalType": "uint256",
          "name": "questionIndex",
          "type": "uint256"
        }
      ],
      "name": "getQuestionInfo",
      "outputs": [
        {
          "internalType": "string",
          "name": "text",
          "type": "string"
        },
        {
          "internalType": "enum EncryptedSurvey.QuestionType",
          "name": "qType",
          "type": "uint8"
        },
        {
          "internalType": "uint256",
          "name": "optionCount",
          "type": "uint256"
        },
        {
          "internalType": "string[]",
          "name": "options",
          "type": "string[]"
        }
      ],
      "stateMutability": "view",
      "type": "function"
    },
    {
      "inputs": [
        {
          "internalType": "uint256",
          "name": "surveyId",
          "type": "uint256"
        },
        {
          "internalType": "uint256",
          "name": "questionIndex",
          "type": "uint256"
        }
      ],
      "name": "getQuestionOptionCounts",
      "outputs": [
        {
          "internalType": "euint32[]",
          "name": "counts",
          "type": "bytes32[]"
        }
      ],
      "stateMutability": "view",
      "type": "function"
    },
    {
      "inputs": [
        {
          "internalType": "uint256",
          "name": "surveyId",
          "type": "uint256"
        },
        {
          "internalType": "address",
          "name": "userAddress",
          "type": "address"
        },
        {
          "internalType": "uint256",
          "name": "questionIndex",
          "type": "uint256"
        }
      ],
      "name": "getResponse",
      "outputs": [
        {
          "internalType": "euint32",
          "name": "",
          "type": "bytes32"
        }
      ],
      "stateMutability": "view",
      "type": "function"
    },
    {
      "inputs": [
        {
          "internalType": "uint256",
          "name": "surveyId",
          "type": "uint256"
        }
      ],
      "name": "getSurveyInfo",
      "outputs": [
        {
          "internalType": "address",
          "name": "creator",
          "type": "address"
        },
        {
          "internalType": "string",
          "name": "title",
          "type": "string"
        },
        {
          "internalType": "string",
          "name": "category",
          "type": "string"
        },
        {
          "internalType": "uint256",
          "name": "createdAt",
          "type": "uint256"
        },
        {
          "internalType": "uint256",
          "name": "startTime",
          "type": "uint256"
        },
        {
          "internalType": "uint256",
          "name": "endTime",
          "type": "uint256"
        },
        {
          "internalType": "uint256",
          "name": "questionCount",
          "type": "uint256"
        },
        {
          "internalType": "bool",
          "name": "exists",
          "type": "bool"
        },
        {
          "internalType": "bool",
          "name": "isActive",
          "type": "bool"
        }
      ],
      "stateMutability": "view",
      "type": "function"
    },
    {
      "inputs": [
        {
          "internalType": "uint256",
          "name": "surveyId",
          "type": "uint256"
        }
      ],
      "name": "getSurveyTags",
      "outputs": [
        {
          "internalType": "string[]",
          "name": "",
          "type": "string[]"
        }
      ],
      "stateMutability": "view",
      "type": "function"
    },
    {
      "inputs": [
        {
          "internalType": "uint256",
          "name": "surveyId",
          "type": "uint256"
        }
      ],
      "name": "getTotalResponses",
      "outputs": [
        {
          "internalType": "euint32",
          "name": "",
          "type": "bytes32"
        }
      ],
      "stateMutability": "view",
      "type": "function"
    },
    {
      "inputs": [
        {
          "internalType": "uint256",
          "name": "surveyId",
          "type": "uint256"
        },
        {
          "internalType": "address",
          "name": "viewer",
          "type": "address"
        },
        {
          "internalType": "bool",
          "name": "canView",
          "type": "bool"
        },
        {
          "internalType": "bool",
          "name": "canExport",
          "type": "bool"
        },
        {
          "internalType": "bool",
          "name": "canManage",
          "type": "bool"
        }
      ],
      "name": "grantPermission",
      "outputs": [],
      "stateMutability": "nonpayable",
      "type": "function"
    },
    {
      "inputs": [
        {
          "internalType": "uint256",
          "name": "surveyId",
          "type": "uint256"
        },
        {
          "internalType": "address",
          "name": "userAddress",
          "type": "address"
        }
      ],
      "name": "hasResponded",
      "outputs": [
        {
          "internalType": "bool",
          "name": "",
          "type": "bool"
        }
      ],
      "stateMutability": "view",
      "type": "function"
    },
    {
      "inputs": [
        {
          "internalType": "uint256",
          "name": "",
          "type": "uint256"
        },
        {
          "internalType": "address",
          "name": "",
          "type": "address"
        }
      ],
      "name": "permissions",
      "outputs": [
        {
          "internalType": "bool",
          "name": "canView",
          "type": "bool"
        },
        {
          "internalType": "bool",
          "name": "canExport",
          "type": "bool"
        },
        {
          "internalType": "bool",
          "name": "canManage",
          "type": "bool"
        },
        {
          "internalType": "bool",
          "name": "exists",
          "type": "bool"
        }
      ],
      "stateMutability": "view",
      "type": "function"
    },
    {
      "inputs": [
        {
          "internalType": "uint256",
          "name": "",
          "type": "uint256"
        },
        {
          "internalType": "address",
          "name": "",
          "type": "address"
        }
      ],
      "name": "responses",
      "outputs": [
        {
          "internalType": "bool",
          "name": "exists",
          "type": "bool"
        },
        {
          "internalType": "uint256",
          "name": "submittedAt",
          "type": "uint256"
        }
      ],
      "stateMutability": "view",
      "type": "function"
    },
    {
      "inputs": [
        {
          "internalType": "uint256",
          "name": "surveyId",
          "type": "uint256"
        },
        {
          "internalType": "address",
          "name": "viewer",
          "type": "address"
        }
      ],
      "name": "revokePermission",
      "outputs": [],
      "stateMutability": "nonpayable",
      "type": "function"
    },
    {
      "inputs": [
        {
          "internalType": "uint256",
          "name": "surveyId",
          "type": "uint256"
        },
        {
          "internalType": "bool",
          "name": "isActive",
          "type": "bool"
        }
      ],
      "name": "setSurveyStatus",
      "outputs": [],
      "stateMutability": "nonpayable",
      "type": "function"
    },
    {
      "inputs": [
        {
          "internalType": "uint256",
          "name": "surveyId",
          "type": "uint256"
        },
        {
          "internalType": "externalEuint32[]",
          "name": "encryptedAnswers",
          "type": "bytes32[]"
        },
        {
          "internalType": "bytes[]",
          "name": "answerProofs",
          "type": "bytes[]"
        }
      ],
      "name": "submitResponse",
      "outputs": [],
      "stateMutability": "nonpayable",
      "type": "function"
    },
    {
      "inputs": [],
      "name": "surveyCounter",
      "outputs": [
        {
          "internalType": "uint256",
          "name": "",
          "type": "uint256"
        }
      ],
      "stateMutability": "view",
      "type": "function"
    },
    {
      "inputs": [
        {
          "internalType": "uint256",
          "name": "",
          "type": "uint256"
        }
      ],
      "name": "surveys",
      "outputs": [
        {
          "internalType": "address",
          "name": "creator",
          "type": "address"
        },
        {
          "internalType": "string",
          "name": "title",
          "type": "string"
        },
        {
          "internalType": "string",
          "name": "category",
          "type": "string"
        },
        {
          "internalType": "uint256",
          "name": "createdAt",
          "type": "uint256"
        },
        {
          "internalType": "uint256",
          "name": "startTime",
          "type": "uint256"
        },
        {
          "internalType": "uint256",
          "name": "endTime",
          "type": "uint256"
        },
        {
          "internalType": "bool",
          "name": "exists",
          "type": "bool"
        },
        {
          "internalType": "bool",
          "name": "isActive",
          "type": "bool"
        },
        {
          "internalType": "uint256",
          "name": "questionCount",
          "type": "uint256"
        },
        {
          "internalType": "euint32",
          "name": "totalResponses",
          "type": "bytes32"
        }
      ],
      "stateMutability": "view",
      "type": "function"
    }
  ],
  "bytecode": "0x608060405234801561000f575f5ffd5b506100c461001b6100c9565b80517f9e7b61f58c47dc699ac88507c4f5bb9f121c03808c5676a8078fe583e464970080546001600160a01b03199081166001600160a01b039384161790915560208301517f9e7b61f58c47dc699ac88507c4f5bb9f121c03808c5676a8078fe583e46497018054831691841691909117905560408301517f9e7b61f58c47dc699ac88507c4f5bb9f121c03808c5676a8078fe583e46497028054909216921691909117905550565b610238565b604080516060810182525f808252602082018190529181019190915246600103610122575060408051606080820183525f8083526020808401829052928401819052835191820184528082529181018290529182015290565b4662aa36a7036101a1575060408051606080820183525f8083526020808401829052928401528251908101835273f0ffdc93b7e186bc2f8cb3daa75d86d1930a433d81527392c920834ec8941d2c77d188936e1f7a6f49c1279181019190915273be0e383937d564d7ff0bc3b46c51f0bf8d5c311a9181019190915290565b46617a690361021f575060408051606080820183525f8083526020808401829052928401528251908101835273f0ffdc93b7e186bc2f8cb3daa75d86d1930a433d81527392c920834ec8941d2c77d188936e1f7a6f49c1279181019190915273be0e383937d564d7ff0bc3b46c51f0bf8d5c311a9181019190915290565b6040516373cac13b60e01b815260040160405180910390fd5b6131a9806102455f395ff3fe608060405234801561000f575f5ffd5b5060043610610163575f3560e01c80634f2f6967116100c7578063c6cf8e911161007d578063e0737dfd11610063578063e0737dfd146103a0578063e4d9a24e1461040b578063f9dbed521461041e575f5ffd5b8063c6cf8e911461036d578063c92c55441461038d575f5ffd5b806386e68b90116100ad57806386e68b90146103295780638927b030146103525780639cb5a7ff1461035a575f5ffd5b80634f2f6967146102fd57806356d0ce4614610306575f5ffd5b80632dea8a8d1161011c578063300ecdb911610102578063300ecdb9146102275780633125d43c1461029a5780634bef5ef0146102ad575f5ffd5b80632dea8a8d146101ec5780632e8f3413146101ff575f5ffd5b80631fef36471161014c5780631fef36471461018f57806329b0f025146101b85780632ce9ed85146101d9575f5ffd5b8063159f6ff3146101675780631da462791461017c575b5f5ffd5b61017a610175366004612754565b610467565b005b61017a61018a3660046127b3565b610568565b6101a261019d366004612754565b610bba565b6040516101af91906128b4565b60405180910390f35b6101cb6101c6366004612754565b610cee565b6040519081526020016101af565b6101cb6101e73660046128e1565b610d51565b61017a6101fa366004612754565b610e3d565b61021261020d366004612754565b610fc5565b6040516101af99989796959493929190612914565b610270610235366004612982565b600260209081525f928352604080842090915290825290205460ff808216916101008104821691620100008204811691630100000090041684565b604080519415158552921515602085015290151591830191909152151560608201526080016101af565b61017a6102a8366004612982565b61115d565b6102e66102bb366004612982565b600160208181525f938452604080852090915291835291209081015460029091015460ff9091169082565b6040805192151583526020830191909152016101af565b6101cb60035481565b6103196103143660046129ac565b611279565b6040516101af94939291906129e0565b61033c610337366004612754565b6114bf565b6040516101af9a99989796959493929190612a2b565b6101cb61162a565b61017a610368366004612aac565b611638565b61038061037b3660046129ac565b61179f565b6040516101af9190612b06565b61017a61039b366004612b48565b61192a565b6103ec6103ae366004612982565b5f9182526002602090815260408084206001600160a01b0393909316845291905290205460ff80821692610100830482169262010000900490911690565b60408051931515845291151560208401521515908201526060016101af565b6101cb610419366004612db1565b611a89565b61045761042c366004612982565b5f9182526001602081815260408085206001600160a01b039490941685529290529120015460ff1690565b60405190151581526020016101af565b5f818152602081905260409020600781015460ff166104c55760405162461bcd60e51b815260206004820152601560248201527414dd5c9d995e48191bd95cc81b9bdd08195e1a5cdd605a1b60448201526064015b60405180910390fd5b80546001600160a01b03163314610555575f828152600260209081526040808320338452909152902080546301000000900460ff1680156105075750805460ff165b6105535760405162461bcd60e51b815260206004820152601660248201527f4e6f7420617574686f72697a656420746f20766965770000000000000000000060448201526064016104bc565b505b61056381600c015433611fe7565b505050565b5f858152602081905260409020600781015460ff166105c15760405162461bcd60e51b815260206004820152601560248201527414dd5c9d995e48191bd95cc81b9bdd08195e1a5cdd605a1b60448201526064016104bc565b6007810154610100900460ff1661061a5760405162461bcd60e51b815260206004820152601460248201527f537572766579206973206e6f742061637469766500000000000000000000000060448201526064016104bc565b80600501544210158015610632575080600601544211155b61067e5760405162461bcd60e51b815260206004820152601560248201527f53757276657920706572696f6420696e76616c6964000000000000000000000060448201526064016104bc565b600881015484146106d15760405162461bcd60e51b815260206004820152601760248201527f416e7377657273206c656e677468206d69736d6174636800000000000000000060448201526064016104bc565b600881015482146107245760405162461bcd60e51b815260206004820152601660248201527f50726f6f6673206c656e677468206d69736d617463680000000000000000000060448201526064016104bc565b5f868152600160208181526040808420338552909152909120015460ff161561078f5760405162461bcd60e51b815260206004820152601a60248201527f526573706f6e736520616c7265616479207375626d697474656400000000000060448201526064016104bc565b5f8681526001602081815260408084203385529091528220808201805460ff1916909217909155426002820155905b8260080154811015610b41575f6108448888848181106107e0576107e0612ed1565b905060200201358787858181106107f9576107f9612ed1565b905060200281019061080b9190612ee5565b8080601f0160208091040260200160405190810160405280939291908181526020018383808284375f92019190915250611ff992505050565b5f838152602085905260409020819055905061085f81612006565b505f828152600985016020526040812090600182015460ff166002811115610889576108896129cc565b03610959575f5b8160020154811015610953575f6108ca6108b2856108ad85612015565b612027565b6108bc6001612015565b6108c55f612015565b612055565b5f868152600b8901602090815260408083208684529091529020549091506108f2908261209c565b5f868152600b890160209081526040808320868452909152902081905561091890612006565b505f858152600b880160209081526040808320858452909152902054875461094991906001600160a01b0316611fe7565b5050600101610890565b50610b37565b60018082015460ff166002811115610973576109736129cc565b03610a44575f5b8160020154811015610953575f6109a28461099d600163ffffffff86161b612015565b6120ca565b90505f6109ba6108b2836109b55f612015565b6120f8565b5f878152600b8a01602090815260408083208784529091529020549091506109e2908261209c565b5f878152600b8a01602090815260408083208784529091529020819055610a0890612006565b505f868152600b8901602090815260408083208684529091529020548854610a3991906001600160a01b0316611fe7565b50505060010161097a565b6002600182015460ff166002811115610a5f57610a5f6129cc565b03610b375760015b60058163ffffffff1611610b35575f610a866108b2856108ad85612015565b90505f610a94600184612f3c565b63ffffffff169050610ac888600b015f8881526020019081526020015f205f8381526020019081526020015f20548361209c565b5f878152600b8a01602090815260408083208584529091529020819055610aee90612006565b505f868152600b8901602090815260408083208484529091529020548854610b1f91906001600160a01b0316611fe7565b5050508080610b2d90612f58565b915050610a67565b505b50506001016107be565b50610b5982600c0154610b546001612015565b61209c565b600c8301819055610b6990612006565b50600c8201548254610b8491906001600160a01b0316611fe7565b50604051339088907fd34a91eddebc3a46f0193e4f54124f90bd00de34c64b5407562def103949d006905f90a350505050505050565b5f81815260208190526040902060078101546060919060ff16610c175760405162461bcd60e51b815260206004820152601560248201527414dd5c9d995e48191bd95cc81b9bdd08195e1a5cdd605a1b60448201526064016104bc565b80600301805480602002602001604051908101604052809291908181526020015f905b82821015610ce2578382905f5260205f20018054610c5790612f7c565b80601f0160208091040260200160405190810160405280929190818152602001828054610c8390612f7c565b8015610cce5780601f10610ca557610100808354040283529160200191610cce565b820191905f5260205f20905b815481529060010190602001808311610cb157829003601f168201915b505050505081526020019060010190610c3a565b50505050915050919050565b5f818152602081905260408120600781015460ff16610d475760405162461bcd60e51b815260206004820152601560248201527414dd5c9d995e48191bd95cc81b9bdd08195e1a5cdd605a1b60448201526064016104bc565b600c015492915050565b5f8381526001602081815260408084206001600160a01b038716855290915282209081015460ff16610dc55760405162461bcd60e51b815260206004820152601760248201527f526573706f6e736520646f6573206e6f7420657869737400000000000000000060448201526064016104bc565b5f858152602081905260409020600801548310610e245760405162461bcd60e51b815260206004820152601660248201527f496e76616c6964207175657374696f6e20696e6465780000000000000000000060448201526064016104bc565b5f838152602091909152604090205490505b9392505050565b5f818152602081905260409020600781015460ff16610e965760405162461bcd60e51b815260206004820152601560248201527414dd5c9d995e48191bd95cc81b9bdd08195e1a5cdd605a1b60448201526064016104bc565b80546001600160a01b03163314610f26575f828152600260209081526040808320338452909152902080546301000000900460ff168015610ed85750805460ff165b610f245760405162461bcd60e51b815260206004820152601660248201527f4e6f7420617574686f72697a656420746f20766965770000000000000000000060448201526064016104bc565b505b610f3481600c015433611fe7565b505f5b8160080154811015610563575f8181526009830160205260408120906002600183015460ff166002811115610f6e57610f6e6129cc565b14610f7d578160020154610f80565b60055b90505f5b81811015610fba575f848152600b860160209081526040808320848452909152902054610fb19033611fe7565b50600101610f84565b505050600101610f37565b5f81815260208190526040812080546004820154600583015460068401546008850154600786015460018701805460609889988b988998899889988998899896976001600160a01b03909616969560028901959493929160ff808216926101009092041690889061103590612f7c565b80601f016020809104026020016040519081016040528092919081815260200182805461106190612f7c565b80156110ac5780601f10611083576101008083540402835291602001916110ac565b820191905f5260205f20905b81548152906001019060200180831161108f57829003601f168201915b505050505097508680546110bf90612f7c565b80601f01602080910402602001604051908101604052809291908181526020018280546110eb90612f7c565b80156111365780601f1061110d57610100808354040283529160200191611136565b820191905f5260205f20905b81548152906001019060200180831161111957829003601f168201915b50505050509650995099509950995099509950995099509950509193959799909294969850565b5f828152602081905260409020600781015460ff166111b65760405162461bcd60e51b815260206004820152601560248201527414dd5c9d995e48191bd95cc81b9bdd08195e1a5cdd605a1b60448201526064016104bc565b80546001600160a01b0316331461121b5760405162461bcd60e51b815260206004820152602360248201527f4f6e6c792063726561746f722063616e207265766f6b65207065726d697373696044820152626f6e7360e81b60648201526084016104bc565b5f8381526002602090815260408083206001600160a01b0386168085529252808320805462ffffff191681559051909233929187917f6ac5d15dd8cae5f909b55d13ebecf194521d4f019d998f96883c93eacffe61f691a450505050565b5f828152602081905260408120600781015460609291829184919060ff166112db5760405162461bcd60e51b815260206004820152601560248201527414dd5c9d995e48191bd95cc81b9bdd08195e1a5cdd605a1b60448201526064016104bc565b8060080154861061132e5760405162461bcd60e51b815260206004820152601660248201527f496e76616c6964207175657374696f6e20696e6465780000000000000000000060448201526064016104bc565b5f8681526009820160205260409020600181015460028201548254839260ff1691906003840190849061136090612f7c565b80601f016020809104026020016040519081016040528092919081815260200182805461138c90612f7c565b80156113d75780601f106113ae576101008083540402835291602001916113d7565b820191905f5260205f20905b8154815290600101906020018083116113ba57829003601f168201915b5050505050935080805480602002602001604051908101604052809291908181526020015f905b828210156114a6578382905f5260205f2001805461141b90612f7c565b80601f016020809104026020016040519081016040528092919081815260200182805461144790612f7c565b80156114925780601f1061146957610100808354040283529160200191611492565b820191905f5260205f20905b81548152906001019060200180831161147557829003601f168201915b5050505050815260200190600101906113fe565b5050505090509550955095509550505092959194509250565b5f60208190529081526040902080546001820180546001600160a01b0390921692916114ea90612f7c565b80601f016020809104026020016040519081016040528092919081815260200182805461151690612f7c565b80156115615780601f1061153857610100808354040283529160200191611561565b820191905f5260205f20905b81548152906001019060200180831161154457829003601f168201915b50505050509080600201805461157690612f7c565b80601f01602080910402602001604051908101604052809291908181526020018280546115a290612f7c565b80156115ed5780601f106115c4576101008083540402835291602001916115ed565b820191905f5260205f20905b8154815290600101906020018083116115d057829003601f168201915b50505060048401546005850154600686015460078701546008880154600c909801549697939692955090935060ff8082169361010090920416918a565b5f611633612126565b905090565b5f858152602081905260409020600781015460ff166116915760405162461bcd60e51b815260206004820152601560248201527414dd5c9d995e48191bd95cc81b9bdd08195e1a5cdd605a1b60448201526064016104bc565b80546001600160a01b031633146116f55760405162461bcd60e51b815260206004820152602260248201527f4f6e6c792063726561746f722063616e206772616e74207065726d697373696f6044820152616e7360f01b60648201526084016104bc565b5f8681526002602090815260408083206001600160a01b038916845290915290208054630100000061ffff1990911686151561ff00191617610100861515021763ffff00001916620100008515150263ff000000191617178155600c82015461175e9087611fe7565b5060405133906001600160a01b0388169089907faca51d17b189dad5d67a1a0c06c306435bba1bab55321f7fb55c0219218b3cbe905f90a450505050505050565b5f82815260208190526040902060078101546060919060ff166117fc5760405162461bcd60e51b815260206004820152601560248201527414dd5c9d995e48191bd95cc81b9bdd08195e1a5cdd605a1b60448201526064016104bc565b8060080154831061184f5760405162461bcd60e51b815260206004820152601660248201527f496e76616c6964207175657374696f6e20696e6465780000000000000000000060448201526064016104bc565b5f8381526009820160205260408120906002600183015460ff16600281111561187a5761187a6129cc565b1461188957816002015461188c565b60055b90508067ffffffffffffffff8111156118a7576118a7612b69565b6040519080825280602002602001820160405280156118d0578160200160208202803683370190505b5093505f5b8181101561191f575f868152600b850160209081526040808320848452909152902054855186908390811061190c5761190c612ed1565b60209081029190910101526001016118d5565b505050505b92915050565b5f828152602081905260409020600781015460ff166119835760405162461bcd60e51b815260206004820152601560248201527414dd5c9d995e48191bd95cc81b9bdd08195e1a5cdd605a1b60448201526064016104bc565b80546001600160a01b03163314806119e357505f8381526002602090815260408083203384529091529020546301000000900460ff1680156119e357505f83815260026020908152604080832033845290915290205462010000900460ff165b611a2f5760405162461bcd60e51b815260206004820152600e60248201527f4e6f7420617574686f72697a656400000000000000000000000000000000000060448201526064016104bc565b6007810180548315156101000261ff001990911617905560405183907fd91652fb96c59daf2212ff584ddc2e7e05e3a6cc089e82ca4607e3abbe9ceb9690611a7c90851515815260200190565b60405180910390a2505050565b5f5f895111611ada5760405162461bcd60e51b815260206004820152601560248201527f5469746c652063616e6e6f7420626520656d707479000000000000000000000060448201526064016104bc565b858511611b295760405162461bcd60e51b815260206004820152601260248201527f496e76616c69642074696d652072616e6765000000000000000000000000000060448201526064016104bc565b5f8451118015611b3b57506014845111155b611b875760405162461bcd60e51b815260206004820152601660248201527f496e76616c6964207175657374696f6e20636f756e740000000000000000000060448201526064016104bc565b8251845114611bfe5760405162461bcd60e51b815260206004820152602860248201527f5175657374696f6e20746578747320616e64207479706573206c656e6774682060448201527f6d69736d6174636800000000000000000000000000000000000000000000000060648201526084016104bc565b8151845114611c755760405162461bcd60e51b815260206004820152602a60248201527f5175657374696f6e20746578747320616e64206f7074696f6e73206c656e677460448201527f68206d69736d617463680000000000000000000000000000000000000000000060648201526084016104bc565b600380545f9182611c8583612fb4565b909155505f81815260208190526040902080547fffffffffffffffffffffffff0000000000000000000000000000000000000000163317815590915060018101611ccf8c82613017565b5060028101611cde8b82613017565b508851611cf490600383019060208c019061269e565b50426004820155600581018890556006810187905560078101805461ffff1916610101179055855160088201555f5b8651811015611f39575f878281518110611d3f57611d3f612ed1565b60200260200101515111611d955760405162461bcd60e51b815260206004820152601d60248201527f5175657374696f6e20746578742063616e6e6f7420626520656d70747900000060448201526064016104bc565b5f858281518110611da857611da8612ed1565b60200260200101515111611e245760405162461bcd60e51b815260206004820152602660248201527f5175657374696f6e206d7573742068617665206174206c65617374206f6e652060448201527f6f7074696f6e000000000000000000000000000000000000000000000000000060648201526084016104bc565b6040518060800160405280888381518110611e4157611e41612ed1565b60200260200101518152602001878381518110611e6057611e60612ed1565b60200260200101516002811115611e7957611e796129cc565b8152602001868381518110611e9057611e90612ed1565b6020026020010151518152602001868381518110611eb057611eb0612ed1565b6020908102919091018101519091525f838152600985019091526040902081518190611edc9082613017565b50602082015160018083018054909160ff1990911690836002811115611f0457611f046129cc565b02179055506040820151600282015560608201518051611f2e91600384019160209091019061269e565b505050600101611d23565b50611f435f612015565b600c8201819055611f5390612006565b505f828152600260209081526040808320338085529252909120805463ffffffff19166301010101178155600c8301549091611f8f9190611fe7565b50336001600160a01b0316837f5cb569175898c932395a0bedd19d8914d0bbbbf405e425f47368a127524951678e8e8b51604051611fcf939291906130d2565b60405180910390a350909a9950505050505050505050565b5f611ff2838361215a565b5090919050565b5f610e36838360046121d0565b5f612011823061215a565b5090565b5f6119248263ffffffff1660046122dd565b5f82612039576120365f612015565b92505b8161204a576120475f612015565b91505b610e3683835f61237f565b5f83612067576120645f61244f565b93505b82612078576120755f612015565b92505b81612089576120865f612015565b91505b61209484848461246a565b949350505050565b5f826120ae576120ab5f612015565b92505b816120bf576120bc5f612015565b91505b610e3683835f612500565b5f826120dc576120d95f612015565b92505b816120ed576120ea5f612015565b91505b610e3683835f61258a565b5f8261210a576121075f612015565b92505b8161211b576121185f612015565b91505b610e3683835f612614565b5f466001036121355750600190565b4662aa36a703612146575061271190565b46617a690361215557505f1990565b505f90565b5f5f51602061317d5f395f51905f528054604051635ca4b5b160e11b8152600481018690526001600160a01b03858116602483015292935091169063b9496b62906044015f604051808303815f87803b1580156121b5575f5ffd5b505af11580156121c7573d5f5f3e3d5ffd5b50505050505050565b7f9e7b61f58c47dc699ac88507c4f5bb9f121c03808c5676a8078fe583e46497015460405163045fc19560e11b81525f915f51602061317d5f395f51905f52916001600160a01b03909116906308bf832a9061223690889033908990899060040161311b565b6020604051808303815f875af1158015612252573d5f5f3e3d5ffd5b505050506040513d601f19601f820116820180604052508101906122769190613151565b8154604051630f8e573b60e21b8152600481018390523360248201529193506001600160a01b031690633e395cec906044015f604051808303815f87803b1580156122bf575f5ffd5b505af11580156122d1573d5f5f3e3d5ffd5b50505050509392505050565b7f9e7b61f58c47dc699ac88507c4f5bb9f121c03808c5676a8078fe583e464970154604051639cd07acb60e01b81525f915f51602061317d5f395f51905f52916001600160a01b0390911690639cd07acb9061233f9087908790600401613168565b6020604051808303815f875af115801561235b573d5f5f3e3d5ffd5b505050506040513d601f19601f820116820180604052508101906120949190613151565b5f5f82156123925750600160f81b612395565b505f5b7f9e7b61f58c47dc699ac88507c4f5bb9f121c03808c5676a8078fe583e46497015460405163f77f3f1d60e01b815260048101879052602481018690526001600160f81b0319831660448201525f51602061317d5f395f51905f52916001600160a01b03169063f77f3f1d906064015b6020604051808303815f875af1158015612421573d5f5f3e3d5ffd5b505050506040513d601f19601f820116820180604052508101906124459190613151565b9695505050505050565b5f6119248261245e575f612461565b60015b60ff165f6122dd565b5f805f51602061317d5f395f51905f526001810154604051637702dcff60e01b81526004810188905260248101879052604481018690529192506001600160a01b031690637702dcff906064016020604051808303815f875af11580156124d3573d5f5f3e3d5ffd5b505050506040513d601f19601f820116820180604052508101906124f79190613151565b95945050505050565b5f5f82156125135750600160f81b612516565b505f5b7f9e7b61f58c47dc699ac88507c4f5bb9f121c03808c5676a8078fe583e46497015460405163022f65e760e31b815260048101879052602481018690526001600160f81b0319831660448201525f51602061317d5f395f51905f52916001600160a01b03169063117b2f3890606401612405565b5f5f821561259d5750600160f81b6125a0565b505f5b7f9e7b61f58c47dc699ac88507c4f5bb9f121c03808c5676a8078fe583e46497015460405163d99882d560e01b815260048101879052602481018690526001600160f81b0319831660448201525f51602061317d5f395f51905f52916001600160a01b03169063d99882d590606401612405565b5f5f82156126275750600160f81b61262a565b505f5b7f9e7b61f58c47dc699ac88507c4f5bb9f121c03808c5676a8078fe583e4649701546040516385362ee760e01b815260048101879052602481018690526001600160f81b0319831660448201525f51602061317d5f395f51905f52916001600160a01b0316906385362ee790606401612405565b828054828255905f5260205f209081019282156126e2579160200282015b828111156126e257825182906126d29082613017565b50916020019190600101906126bc565b506120119291505b80821115612011575f6126fd8282612706565b506001016126ea565b50805461271290612f7c565b5f825580601f10612721575050565b601f0160209004905f5260205f209081019061273d9190612740565b50565b5b80821115612011575f8155600101612741565b5f60208284031215612764575f5ffd5b5035919050565b5f5f83601f84011261277b575f5ffd5b50813567ffffffffffffffff811115612792575f5ffd5b6020830191508360208260051b85010111156127ac575f5ffd5b9250929050565b5f5f5f5f5f606086880312156127c7575f5ffd5b85359450602086013567ffffffffffffffff8111156127e4575f5ffd5b6127f08882890161276b565b909550935050604086013567ffffffffffffffff81111561280f575f5ffd5b61281b8882890161276b565b969995985093965092949392505050565b5f81518084528060208401602086015e5f602082860101526020601f19601f83011685010191505092915050565b5f82825180855260208501945060208160051b830101602085015f5b838110156128a857601f1985840301885261289283835161282c565b6020988901989093509190910190600101612876565b50909695505050505050565b602081525f610e36602083018461285a565b80356001600160a01b03811681146128dc575f5ffd5b919050565b5f5f5f606084860312156128f3575f5ffd5b83359250612903602085016128c6565b929592945050506040919091013590565b6001600160a01b038a16815261012060208201525f61293761012083018b61282c565b8281036040840152612949818b61282c565b60608401999099525050608081019590955260a085019390935260c0840191909152151560e08301521515610100909101529392505050565b5f5f60408385031215612993575f5ffd5b823591506129a3602084016128c6565b90509250929050565b5f5f604083850312156129bd575f5ffd5b50508035926020909101359150565b634e487b7160e01b5f52602160045260245ffd5b608081525f6129f2608083018761282c565b60038610612a0257612a026129cc565b8560208401528460408401528281036060840152612a20818561285a565b979650505050505050565b6001600160a01b038b16815261014060208201525f612a4e61014083018c61282c565b8281036040840152612a60818c61282c565b606084019a909a525050608081019690965260a086019490945291151560c0850152151560e0840152610100830152610120909101529392505050565b803580151581146128dc575f5ffd5b5f5f5f5f5f60a08688031215612ac0575f5ffd5b85359450612ad0602087016128c6565b9350612ade60408701612a9d565b9250612aec60608701612a9d565b9150612afa60808701612a9d565b90509295509295909350565b602080825282518282018190525f918401906040840190835b81811015612b3d578351835260209384019390920191600101612b1f565b509095945050505050565b5f5f60408385031215612b59575f5ffd5b823591506129a360208401612a9d565b634e487b7160e01b5f52604160045260245ffd5b604051601f8201601f1916810167ffffffffffffffff81118282101715612ba657612ba6612b69565b604052919050565b5f82601f830112612bbd575f5ffd5b813567ffffffffffffffff811115612bd757612bd7612b69565b612bea601f8201601f1916602001612b7d565b818152846020838601011115612bfe575f5ffd5b816020850160208301375f918101602001919091529392505050565b5f67ffffffffffffffff821115612c3357612c33612b69565b5060051b60200190565b5f82601f830112612c4c575f5ffd5b8135612c5f612c5a82612c1a565b612b7d565b8082825260208201915060208360051b860101925085831115612c80575f5ffd5b602085015b83811015612cc157803567ffffffffffffffff811115612ca3575f5ffd5b612cb2886020838a0101612bae565b84525060209283019201612c85565b5095945050505050565b5f82601f830112612cda575f5ffd5b8135612ce8612c5a82612c1a565b8082825260208201915060208360051b860101925085831115612d09575f5ffd5b602085015b83811015612cc157803560038110612d24575f5ffd5b835260209283019201612d0e565b5f82601f830112612d41575f5ffd5b8135612d4f612c5a82612c1a565b8082825260208201915060208360051b860101925085831115612d70575f5ffd5b602085015b83811015612cc157803567ffffffffffffffff811115612d93575f5ffd5b612da2886020838a0101612c3d565b84525060209283019201612d75565b5f5f5f5f5f5f5f5f610100898b031215612dc9575f5ffd5b883567ffffffffffffffff811115612ddf575f5ffd5b612deb8b828c01612bae565b985050602089013567ffffffffffffffff811115612e07575f5ffd5b612e138b828c01612bae565b975050604089013567ffffffffffffffff811115612e2f575f5ffd5b612e3b8b828c01612c3d565b965050606089013594506080890135935060a089013567ffffffffffffffff811115612e65575f5ffd5b612e718b828c01612c3d565b93505060c089013567ffffffffffffffff811115612e8d575f5ffd5b612e998b828c01612ccb565b92505060e089013567ffffffffffffffff811115612eb5575f5ffd5b612ec18b828c01612d32565b9150509295985092959890939650565b634e487b7160e01b5f52603260045260245ffd5b5f5f8335601e19843603018112612efa575f5ffd5b83018035915067ffffffffffffffff821115612f14575f5ffd5b6020019150368190038213156127ac575f5ffd5b634e487b7160e01b5f52601160045260245ffd5b63ffffffff828116828216039081111561192457611924612f28565b5f63ffffffff821663ffffffff8103612f7357612f73612f28565b60010192915050565b600181811c90821680612f9057607f821691505b602082108103612fae57634e487b7160e01b5f52602260045260245ffd5b50919050565b5f60018201612fc557612fc5612f28565b5060010190565b601f82111561056357805f5260205f20601f840160051c81016020851015612ff15750805b601f840160051c820191505b81811015613010575f8155600101612ffd565b5050505050565b815167ffffffffffffffff81111561303157613031612b69565b6130458161303f8454612f7c565b84612fcc565b6020601f821160018114613077575f83156130605750848201515b5f19600385901b1c1916600184901b178455613010565b5f84815260208120601f198516915b828110156130a65787850151825560209485019460019092019101613086565b50848210156130c357868401515f19600387901b60f8161c191681555b50505050600190811b01905550565b606081525f6130e4606083018661282c565b82810360208401526130f6818661282c565b915050826040830152949350505050565b60548110613117576131176129cc565b9052565b8481526001600160a01b0384166020820152608060408201525f613142608083018561282c565b90506124f76060830184613107565b5f60208284031215613161575f5ffd5b5051919050565b82815260408101610e36602083018461310756fe9e7b61f58c47dc699ac88507c4f5bb9f121c03808c5676a8078fe583e4649700a164736f6c634300081b000a",
  "linkReferences": {},
  "deployedLinkReferences": {}
}